:100000000C9463000C94B8070C94E5070C948B00D7
:100010000C948B000C948B000C948B000C948B0034
:100020000C948B000C948B000C948B000C948B0024
:100030000C948B000C948B000C948B000C948B0014
:100040000C9412080C948B000C94F40A0C94260B5C
:100050000C948B000C948B000C948B000C948B00F4
:100060000C948B000C948B0000000008000201002F
:100070000003040700000000000000000102040863
:100080001020408001020408102001020408102002
:10009000040404040404040402020202020203032E
:1000A00003030303000000002300260029000000D2
:1000B0000000250028002B0000000000240027007D
:1000C0002A00C800560B11241FBECFEFD8E0DEBFB8
:1000D000CDBF11E0A0E0B1E0E4E5F8E102C0059099
:1000E0000D92A239B107D9F722E0A2E9B1E001C02F
:1000F0001D92AA39B207E1F710E0C6ECD0E004C0C7
:100100002297FE010E94240CC23CD107C9F70E942D
:100110009A0B0C94280C0C94000061E089E00E947A
:10012000170926E040E052EC61E070E08DEF91E0CD
:100130000E94920A29EF4BE76BE289E991E00E9465
:10014000860366E071E089E991E00E94410367E17E
:1001500071E08DEF91E00E94E70B82E991E00E944F
:100160006707882319F065E271E002C068E371E077
:100170008DEF91E00C94ED0B60EA7FE080E090E081
:100180000E948B086DE471E08DEF91E00C94ED0B13
:1001900087E591E090939A01809399018AE080939A
:1001A0009B0182E080939C0110929D0181E08093ED
:1001B000AE0110929F018FE18093A0011092A101E6
:1001C00040E35FEE68E082E991E00C94BE0608959A
:1001D0008091A4019091A501DC01ED91FC91048432
:1001E000F585E02D0994CF93DF93EC0161E08A81DE
:1001F0000E94500989858CBD8A858DBD7894DF91D8
:10020000CF910895FC01F8948CB581878DB58287D4
:100210008CB5837F8CBD8CB58F7D8CBD8CB58C7F70
:100220008CBD8DB58E7F8DBD60E082810C945009B0
:10023000F8942091AE01233021F42091AA012111DC
:100240000FC02091AE01233011F4789407C0DC0177
:10025000ED91FC910288F389E02D099580E00895E5
:10026000DC01ED91FC910488F589E02D61E00995B0
:1002700081E008958EBD00000DB407FEFDCF8EB560
:100280000895CF93DF931F92CDB7DEB7DC01ED91D8
:10029000FC910480F581E02D6983099569818823AB
:1002A00059F08091AC01861711F06F3F29F49091BD
:1002B000A80181E0911101C080E00F90DF91CF9102
:1002C00008952F923F924F925F927F928F929F92CA
:1002D000AF92BF92CF92DF92EF92FF920F931F9354
:1002E000CF93DF93EC01962E5A01722E802E10E0F0
:1002F000CE2CD12CE12CF12CE881F9810190F081F8
:10030000E02D01E0272DA501692DCE0109950E9460
:100310005C081B012C010E945C08621973098409A6
:1003200095096C157D058E059F0540F4692DCE015C
:100330000E944101882379F381E004C01F5F811688
:10034000D8F680E0DF91CF911F910F91FF90EF9051
:10035000DF90CF90BF90AF909F908F907F905F90F5
:100360004F903F902F900895EF92FF921F93CF935D
:10037000DF931F92CDB7DEB77C01DC01ED91FC91DC
:10038000008CF18DE02D698309956981862F8F7727
:100390000E943A0180E00E943A01182FD701ED91A6
:1003A000FC91028CF38DE02DC7010995812F0F90F0
:1003B000DF91CF911F91FF90EF9008950F931F93BE
:1003C000CF93DF9300D0CDB7DEB78C01DC01ED9188
:1003D000FC91008CF18DE02D4A8369830995698138
:1003E000862F80680E943A014A81842F0E943A0138
:1003F000D801ED91FC91028CF38DE02DC8010F9096
:100400000F90DF91CF911F910F9109941F93CF937C
:10041000DF93EC01162F8091AE01681709F461C0DB
:10042000623009F440C070F4662309F444C06130BE
:1004300009F057C061E0CE010E94B401482F437E0D
:1004400044603FC06330C1F0643009F04AC061E0ED
:10045000CE010E94B401482F437E4C6061E0CE0182
:100460000E94DE018885882381F1E881F981068870
:10047000F789E02D61E014C061E0CE010E94B40173
:10048000482F437E406161E0CE010E94DE018885F5
:100490008823D9F0E881F9810688F789E02D60E0AA
:1004A000CE01099512C061E0CE010E94B401482F2F
:1004B000437E486006C061E0CE010E94B401482F2F
:1004C000437E61E0CE010E94DE018091AE01811188
:1004D00006C067E2CE010E94B40187FFF6CF1093F9
:1004E000AE01DF91CF911F910895CF93DF93EC017F
:1004F000603208F06FE16F838885882311F066957C
:100500006F8361E1CE010E94B401482F407E8F814C
:10051000482B61E1CE01DF91CF910C94DE01CF92A7
:10052000DF92EF92FF920F931F93CF93DF93EC0133
:10053000F62ED42EC52E122FE881F9810488F58974
:10054000E02D61E0099567E2CE010E94B40187FFCA
:10055000FACF40E065E2CE010E94DE011E3308F0D2
:100560001DE3E11004C0002319F000E401C000E81D
:10057000E881F981008CF18DE02DCE01099580E8AC
:100580000E943A0183E0810F0E943A018F2D0E9460
:100590003A018D810E943A01802F0E943A010D2D6F
:1005A000ED2CFC2C8E2D801B811730F4F7018191EE
:1005B0007F010E943A01F6CFE881F981028CF38D28
:1005C000E02DCE010995E881F9810488F589E02DB7
:1005D00064E0CE0109950E945C086B017C018B816F
:1005E0000E948609892B81F0E881F9810488F589C8
:1005F000E02D61E0CE01DF91CF911F910F91FF902F
:10060000EF90DF90CF9009940E945C086C197D09EF
:100610008E099F09683E73408105910528F7DFCF59
:10062000CF93DF93EC011092AD011092AC011092C8
:10063000AB011092AA011092A9011092A801109288
:10064000A7011092A60168E20E94B40182FF0AC0CD
:100650006DE3CE010E94B401482F44606DE3CE01EA
:100660000E94DE0140E465E2CE010E94DE01E881E5
:10067000F9810488F589E02D63E0CE01DF91CF9107
:100680000994DF92EF92FF920F931F93CF93DF9322
:10069000EC018B01E881F9810488F589E02D61E0A6
:1006A000099501151105E1F0E881F981008CF18DC2
:1006B000E02DCE0109958EEB0E943A017801D12CF4
:1006C000F70181917F010E943A01D394F0E1DF129A
:1006D000F7CFE881F981028CF38DE02DCE010995E9
:1006E0006DE3CE010E94B4018E7F91E0012B09F4ED
:1006F00090E0482F492B6DE3CE01DF91CF911F9100
:100700000F91FF90EF90DF900C94DE018F929F92FB
:10071000AF92BF92DF92EF92FF920F931F93CF930E
:10072000DF93CDB7DEB7AE970FB6F894DEBF0FBE3E
:10073000CDBF7C01D42E8EE28E010F5F1F4FD801FA
:10074000E82F1D92EA95E9F791E0998334E03A8326
:1007500042E04B8393E09D834E833F8340E4488790
:1007600035E039879A8796E09B8793E39C8737E04B
:100770003D8798E09F8799E0998B99E19B8B92E464
:100780009C8B55E25D8B4E8B46E24F8B388F38E267
:10079000398F30E13A8F39E23B8F3CED3C8F8D8FC2
:1007A00088E88E8F8FE28F8F8DE288A380E389A304
:1007B00037E33BA330E93CA338E33DA39EA39CE38E
:1007C0009FA39FE898A79DE399A792E19AA79FE628
:1007D0009BA78CA78FEF8DA76F3131F06B3231F073
:1007E000663531F489ED05C08EE403C08CE601C0A6
:1007F00084EE8E876F3141F06B3221F0663521F443
:1008000080E003C080E401C080EC888B2AA361E013
:10081000D70112968C910E94500961E0F701828104
:100820000E9417090E9488060E945C084B015C0127
:100830004AEA6FE2C7010E94DE016FE2C7010E942F
:10084000B4018A3A59F00E945C08681979098A094A
:100850009B09623371058105910550F30E945C0884
:100860004B015C0145E56FE2C7010E94DE016FE2CA
:10087000C7010E94B401853559F00E945C086819CF
:1008800079098A099B09623371058105910550F345
:10089000B12CF801EB0DF11DEB0DF11D60816F3FE7
:1008A00031F04181C7010E94DE01B394F2CF60E0D4
:1008B00070E0C7010E944103D701ED91FC911197AF
:1008C0000084F185E02D18966C91C7010995D70138
:1008D000ED91FC910488F589E02D61E0C70109954F
:1008E0000E945C084B015C0167E2C7010E94B401F1
:1008F00087FD0BC00E945C08681979098A099B0969
:10090000623371058105910578F30E945C086819CE
:1009100079098A099B09623371058105910588F47B
:1009200043E050E068EE70E0F70184810E94980790
:10093000F092A501E092A401D7011596DC9281E026
:1009400001C080E0AE960FB6F894DEBF0FBECDBFFB
:10095000DF91CF911F910F91FF90EF90DF90BF90AB
:10096000AF909F908F900895CF93DF93EC0161112A
:100970000DC064E2CE010E94B40190E09195819592
:10098000910995958795DF91CF91089541E063E2B4
:100990000E94DE0163E2CE010E94B40181FFFACF22
:1009A000E8CFCF93DF93EC018091AE018330A9F4BF
:1009B0008091AA01811111C060E0CE010E94B404AF
:1009C000863A9F4F54F4E881F9810488F589E02D37
:1009D00061E0CE01099581E001C080E0DF91CF9117
:1009E0000895FF920F931F93CF93DF93EC018091B3
:1009F000AE01833001F568E2CE010E94B40182FDB0
:100A000028C019C08091AD018D3330F4E091AD0163
:100A1000F0E0E155FE4F1082E881F981028CF38D00
:100A2000E02DCE010995E881F9810488F589E02D52
:100A300063E0CE01099560E0CE010E94B40490937A
:100A4000A7018093A601DF91CF911F910F91FF9095
:100A50000895E881F9810488F589E02D61E0CE01EF
:100A60000995E881F981008CF18DE02DCE01099581
:100A700080E00E943A0180E00E943A018093AA013E
:100A80008091AA018334D0F48091AA018093AA01B5
:100A900080E00E943A018093AB018E81811109C0F0
:100AA0009091AB018D81981721F08091AB018F3F20
:100AB00039F48091AA01833018F017C082E4E6CFA0
:100AC0001092AA01E881F981028CF38DE02DCE010C
:100AD0000995E881F9810288F389E02DCE01DF9143
:100AE000CF911F910F91FF9009948091AA0183509B
:100AF0008093AD0180E00E943A018093AC0180E0D8
:100B00000E943A01982F90789093A801982F9074A2
:100B10009093A901E881F9810684F785E02D682F7B
:100B2000CE010995F12C8091AD01F81608F06ACF3D
:100B30000F2D10E080E00E943A01F801E155FE4FD0
:100B40008083F394F0CF4F925F926F927F929F9247
:100B5000AF92BF92EF920F931F93CF93DF93EC016D
:100B6000162F5A01922E6DE30E94B401482F446063
:100B70006DE3CE010E94DE010E945C082B013C0166
:100B8000CE010E94D1048823C1F0E881F981008858
:100B9000F189E02DE12C292DA501612FCE010995C8
:100BA000DF91CF911F910F91EF90BF90AF909F90E9
:100BB0007F906F905F904F9008950E945C08641939
:100BC000750986099709683E734081059105E8F625
:100BD000E881F9810480F581E02DCE010995D0CF1F
:100BE0004F925F926F927F929F92AF92BF92CF92FD
:100BF000DF92EF92FF920F93CF93DF93EC015B01B3
:100C0000942E1092A901F090AC01C090A601D09052
:100C1000A7016DE30E94B401482F44606DE3CE014B
:100C20000E94DE010E945C082B013C01CE010E9463
:100C3000D104882301F1E881F9810088F189E02D50
:100C4000EE24E39400E0292DA5016F2DCE01099536
:100C5000D092A701C092A601DF91CF910F91FF9092
:100C6000EF90DF90CF90BF90AF909F907F906F906C
:100C70005F904F9008950E945C0864197509860979
:100C80009709683E734081059105A8F6E881F981CE
:100C90000480F581E02DCE010995C8CFCF93DF9375
:100CA000EC016887662311F04FE001C04AE163E17F
:100CB000CE010E94DE018885882341F061E1CE01EA
:100CC0000E94B401482F4F71406602C04F814068B6
:100CD00061E1CE01DF91CF910C94DE011F93CF93A0
:100CE000DF93EC01162F662311F04DE501C045E5B9
:100CF0006AE5CE010E94DE01112311F04CE701C02C
:100D000040E76CE5CE01DF91CF911F910C94DE019D
:100D1000CF93CFB7F8948091EF01811127C0EAE912
:100D2000F0E08491E6E8F0E09491E82FF0E0EE0F37
:100D3000FF1FE854FF4FA591B4918C91892321F4B2
:100D400061E08AE00E94500961E08AE00E94170990
:100D50008CB580618CBD8CB580648CBD61E08DE00C
:100D60000E94170961E08BE00E9417098091EF0152
:100D70008F5F8093EF01CFBFCF910895FC0180E595
:100D8000858316826083528341830895FC018CB56C
:100D900083838DB58483358126818091EE018823FC
:100DA00099F09FB7F8948091EE01813059F48DB39A
:100DB0008093EC014DB38091ED01809584238DBB30
:100DC0009FBF02C09093EC013CBD2DBD60E08081CF
:100DD0000C945009CF93DF93EC0161E088810E946D
:100DE00050098091EE01882361F09FB7F89420911B
:100DF000EE018091EC01213019F48DBB9FBF01C041
:100E00008FBF8B818CBD8C818DBDDF91CF9108957B
:100E10000F931F93CF93DF938C010E94C6068FE937
:100E20000E943A0180E00E943A01C82FD0E0DC2FF6
:100E3000CC2780E00E943A01C82BC8010E94EA0634
:100E4000CE01DF91CF911F910F9108951F93CF9302
:100E5000DF93EC010E94C60685E00E943A0180E023
:100E60000E943A01182FCE010E94EA06812FDF91DD
:100E7000CF911F9108950E942607817008951F93B6
:100E8000CF93DF93EC01162F442339F040E066E066
:100E90000E943F07CE010E94EA06CE010E943B0756
:100EA0008111FBCFCE010E94C606812FDF91CF9129
:100EB0001F910C943A01CF93DF93EC0140E06BEA71
:100EC0000E943F07CE01DF91CF910C94EA06CF93A9
:100ED000DF93EC018CB58B838DB58C8361E08881C9
:100EE0000E94170980E58D831E82CE010E94EA06CA
:100EF000CE010E945B0789819A81892B51F0CE0136
:100F00000E94080729813A818217930711F080E037
:100F10000CC041E061E0CE010E943F0780E00E94EA
:100F20003A01CE010E94EA0681E0DF91CF91089557
:100F30008230E8F4E82FF0E0EE0FFF1FE051FE4FA3
:100F400071836083813041F0809169008C7F842BB4
:100F500080936900E89A089580916900440F551FB5
:100F6000440F551F837F842B80936900E99A08956D
:100F70001F920F920FB60F9211242F933F934F930E
:100F80005F936F937F938F939F93AF93BF93EF93F1
:100F9000FF938091F0019091F101892B29F0E0916C
:100FA000F001F091F1010995FF91EF91BF91AF919F
:100FB0009F918F917F916F915F914F913F912F9171
:100FC0000F900FBE0F901F9018951F920F920FB6A3
:100FD0000F9211242F933F934F935F936F937F93BF
:100FE0008F939F93AF93BF93EF93FF938091F20101
:100FF0009091F301892B29F0E091F201F091F30136
:101000000995FF91EF91BF91AF919F918F917F9142
:101010006F915F914F913F912F910F900FBE0F9065
:101020001F9018951F920F920FB60F9211242F93B5
:101030003F938F939F93AF93BF938091F5019091CE
:10104000F601A091F701B091F8013091F40123E08D
:10105000230F2D3720F40196A11DB11D05C026E8F0
:10106000230F0296A11DB11D2093F4018093F50179
:101070009093F601A093F701B093F8018091F901E4
:101080009091FA01A091FB01B091FC010196A11D84
:10109000B11D8093F9019093FA01A093FB01B093E5
:1010A000FC01BF91AF919F918F913F912F910F9034
:1010B0000FBE0F901F9018952FB7F8946091F5010F
:1010C0007091F6018091F7019091F8012FBF08957A
:1010D0003FB7F8948091F9019091FA01A091FB013A
:1010E000B091FC0126B5A89B05C02F3F19F00196D1
:1010F000A11DB11D3FBF6627782F892F9A2F620F40
:10110000711D811D911D42E0660F771F881F991F79
:101110004A95D1F70895CF92DF92EF92FF92CF9345
:10112000DF936B017C010E946808EB01C114D104BC
:10113000E104F10489F00E94FF0B0E9468086C1B17
:101140007D0B683E734090F381E0C81AD108E10836
:10115000F108C851DC4FEACFDF91CF91FF90EF90BB
:10116000DF90CF900895789484B5826084BD84B573
:10117000816084BD85B5826085BD85B5816085BD92
:10118000EEE6F0E0808181608083E1E8F0E01082AB
:10119000808182608083808181608083E0E8F0E0EC
:1011A000808181608083E1EBF0E0808184608083D6
:1011B000E0EBF0E0808181608083EAE7F0E080810D
:1011C000846080838081826080838081816080836D
:1011D0008081806880831092C1000895833081F0FF
:1011E00028F4813099F08230A1F008958730A9F079
:1011F0008830B9F08430D1F4809180008F7D03C0B5
:10120000809180008F7780938000089584B58F77D8
:1012100002C084B58F7D84BD08958091B0008F7722
:1012200003C08091B0008F7D8093B0000895CF936C
:10123000DF9390E0FC01E458FF4F2491FC01E0575C
:10124000FF4F8491882349F190E0880F991FFC019A
:10125000E854FF4FA591B49182559F4FFC01C59171
:10126000D4919FB7611108C0F8948C912095822386
:101270008C93888182230AC0623051F4F8948C9157
:10128000322F309583238C938881822B888304C0EE
:10129000F8948C91822B8C939FBFDF91CF9108950E
:1012A0000F931F93CF93DF931F92CDB7DEB7282FF5
:1012B00030E0F901E859FF4F8491F901E458FF4FFC
:1012C0001491F901E057FF4F04910023C9F08823DE
:1012D00021F069830E94EE086981E02FF0E0EE0FB3
:1012E000FF1FE255FF4FA591B4919FB7F8948C91E1
:1012F000611103C01095812301C0812B8C939FBF86
:101300000F90DF91CF911F910F910895CF93DF93AD
:10131000282F30E0F901E859FF4F8491F901E45892
:10132000FF4FD491F901E057FF4FC491CC2391F0C6
:1013300081110E94EE08EC2FF0E0EE0FFF1FEC553C
:10134000FF4FA591B4912C912D2381E090E021F4E1
:1013500080E002C080E090E0DF91CF910895FC0131
:10136000818D228D90E0805C9F4F821B91098F734D
:1013700099270895FC01918D828D981731F0828D07
:10138000E80FF11D858D90E008958FEF9FEF089590
:10139000FC01918D828D981761F0828DDF01A80F7D
:1013A000B11D5D968C91928D9F5F9F73928F90E09F
:1013B00008958FEF9FEF08958CE49BE0892B49F00F
:1013C00080E090E0892B29F00E944C0B81110C9455
:1013D00000000895FC01848DDF01A80FB11DA35A00
:1013E000BF4F2C91848D90E001968F739927848F45
:1013F000A689B7892C93A089B1898C9180648C933C
:10140000938D848D981306C00288F389E02D808126
:101410008F7D80830895CF93DF93EC01888D88239F
:10142000C9F0EA89FB89808185FD05C0A889B98951
:101430008C9186FD0FC00FB607FCF5CF808185FF2C
:10144000F2CFA889B9898C9185FFEDCFCE010E949A
:10145000EA09E7CFDF91CF910895CF92DF92FF9213
:101460000F931F93CF93DF931F92CDB7DEB76C011D
:1014700081E0D60158968C9358975B969C915B9728
:101480005C968C915C97981307C05096ED91FC91F7
:101490005197808185FD2EC0F601038D10E00F5F0E
:1014A0001F4F0F731127F02EF601848DF81211C013
:1014B0000FB607FCF9CFD6015096ED91FC915197EC
:1014C000808185FFF1CFC60169830E94EA096981A5
:1014D000EBCF838DE80FF11DE35AFF4F6083D601F8
:1014E0005B960C935B975296ED91FC91539780819C
:1014F00080620CC0D6015696ED91FC91579760839F
:101500005096ED91FC91519780818064808381E0B9
:1015100090E00F90DF91CF911F910F91FF90DF909E
:10152000CF900895BF92CF92DF92EF92FF92CF9328
:10153000DF93EC016A017B01B22EE889F98982E030
:101540008083411581EE580761057105A1F060E0C7
:1015500079E08DE390E0A70196010E94000C2150F4
:101560003109410951095695479537952795211518
:1015700080E1380798F0E889F989108260E874E81A
:101580008EE190E0A70196010E94000C21503109E4
:10159000410951095695479537952795EC85FD8565
:1015A0003083EE85FF852083188EEC89FD89B0821B
:1015B000EA89FB89808180618083EA89FB89808157
:1015C00088608083EA89FB89808180688083EA89DA
:1015D000FB8980818F7D8083DF91CF91FF90EF9099
:1015E000DF90CF90BF9008951F920F920FB60F9289
:1015F00011242F938F939F93EF93FF93E0910D020C
:10160000F0910E028081E0911302F091140282FDAC
:1016100012C09081809116028F5F8F732091170204
:10162000821751F0E0911602F0E0E350FE4F958FE3
:101630008093160201C08081FF91EF919F918F915D
:101640002F910F900FBE0F901F9018951F920F9221
:101650000FB60F9211242F933F934F935F936F9385
:101660007F938F939F93AF93BF93EF93FF938DEFF0
:1016700091E00E94EA09FF91EF91BF91AF919F9194
:101680008F917F916F915F914F913F912F910F902B
:101690000FBE0F901F9018958DEF91E00E94AF093B
:1016A00021E0892B09F420E0822F08951092000296
:1016B0001092FF0188EE93E0A0E0B0E08093010279
:1016C00090930202A0930302B093040287E791E093
:1016D0009093FE018093FD0185EC90E090930A02C7
:1016E0008093090284EC90E090930C0280930B02AB
:1016F00080EC90E090930E0280930D0281EC90E0DC
:101700009093100280930F0282EC90E0909312026B
:101710008093110286EC90E0909314028093130260
:1017200010921602109217021092180210921902CB
:10173000089508950E94B3080E94990B0E948D009D
:10174000CCEDD9E00E94BC002097E1F30E94DC09B7
:10175000F9CFCF92DF92EF92FF920F931F93CF9327
:10176000DF936C017A01EB01E60EF71E00E010E05A
:10177000CE15DF0561F06991D601ED91FC910190E4
:10178000F081E02DC6010995080F191FF1CFC8019E
:10179000DF91CF911F910F91FF90EF90DF90CF904D
:1017A00008956115710581F0DB010D900020E9F7C6
:1017B000AD0141505109461B570BDC01ED91FC91E5
:1017C0000280F381E02D099480E090E008950C946C
:1017D000D10B63E871E00C94D10B0F931F93CF935F
:1017E000DF93EC010E94D10B8C01CE010E94E90B2A
:1017F000800F911FDF91CF911F910F910895089550
:10180000A1E21A2EAA1BBB1BFD010DC0AA1FBB1F04
:10181000EE1FFF1FA217B307E407F50720F0A21B76
:10182000B30BE40BF50B661F771F881F991F1A94E3
:1018300069F760957095809590959B01AC01BD010D
:10184000CF010895EE0FFF1F0590F491E02D09944C
:04185000F894FFCF3A
:1018540000009A02800073616D706C65456E63725E
:101864007970744B6579005374617274206E6F647F
:10187400652E2E2E0053504920466C617368204912
:101884006E6974204F4B210053504920466C61739C
:101894006820496E6974204641494C210048656CB2
:1018A4006C6F0000000000A30561011801F0054EF3
:1018B400067502F104E7008F02100306026E0602A9
:1018C40001F300000000002D0AA90BAF09C809BAF2
:1018D400090B0A0D0A006E616E00696E66006F7670
:0218E40066009C
:00000001FF
